S012000046696C653A206D61696E2E61736D0AF5
S1130000417665726167652052504D3A2004205252
S1130010504D2873292E044572726F7220696E2028
S1130020746865204341505455524520737562727B
S11300306F7574696E652E044572726F7220696EF5
S1130040207468652050574944544820737562727F
S10B00506F7574696E652E04DE
S10600E87ED0487B
S113D0008EDFFF861EB78004CC0000FD800AFD8001
S113D0100EB78005BDD0373E8601B780053EBDD032
S113D0206DF680045AF7800426EDBDD0CBBDD0D672
S113D030BDD0E5BDD1073F0E8604B710238604B7E3
S113D04010228610B7102139FE10108601B1800518
S113D05026092710CE0017BDFFC73FFF80008604B6
S113D060B710233BFF80028604B710233B8600B72A
S113D0708005BDD07CBDD0A5BDD0BA39FC80001AD6
S113D080B380022E132D07CE0038BDFFC73FFC80AE
S113D09002B38000FD800639CCFFFFB38000F3802B
S113D0A002FD800639FC8006CE001F02FF8006CCFC
S113D0B0FC04FE800602FF800839FC8008F3800A25
S113D0C0FD800AFC800E5CFD800E39FC800AFE8027
S113D0D00E02FF800C39FC800CCE0064028F866443
S113D0E03DFD800C39FC800CCE03E8028FF7DB0198
S113D0F08FCE0064028FF7DB028FCE000A028FF717
S113D100DB038FF7DB0439CE0000BDFFCAB6DB01B9
S113D110BDFFB5B6DB02BDFFB5B6DB03BDFFB5B6DB
S112D120DB04BDFFB5CE000EBDFFCABDFFC43991
S9030000FC
