S013000046696C653A204C616230342E41534D0A86
S1130000456E746572204120566F6C74616765207B
S113001046726F6D2030202D2035303030206D56E3
S10700203A20040476
S113D002BDD07E3FCE0000BDFFC7BDFFCDCE002305
S113D012BDFFC78DEFB6DB01BDFFB5B6DB02BDFFB9
S113D022B5CE0000BDFFCAB6DB03BDFFB5B6DB0457
S113D032BDFFB5CE0023BDFFCABDFFC47CDB017CAE
S113D042DB027CDB037CDB04B6DB01BDFFB5B6DBB4
S113D05202BDFFB5CE0000BDFFCAB6DB03BDFFB5FE
S113D062B6DB04BDFFB5CE0023BDFFCABDFFC47A43
S113D072DB017ADB027ADB037ADB0439CE0000BD02
S106D082FFC739A8
S9030000FC
