S014000046696C653A207265616465722E61736D0A25
S1130000456E746572206120436861726163746532
S11300107220546F2054616B652041204D656173DB
S11300207572656D656E743A200420446567726567
S10E003065732043656C6369757304FD
S113D002BEDFFF8623B71030CE0000BDFFC7BDFFD1
S113D012CDB61034C6283DFDD000BDD0B9BDD0A3D5
S113D022BDD029BDD00A3FFCD000CE000D028F1A1C
S113D0328302BC2E2D1A8302582E2E1A8301F42E3B
S113D0422F1A8301902E301A83012C2E311A830059
S113D052C82E321A8300642E331A8300002E342021
S113D062393F86FFB71004209F86FEB7100420F7CD
S113D07286FCB7100420F086F8B7100420E986F085
S113D082B7100420E286E0B7100420DB86C0B71094
S113D0920420D48680B7100420CD8600B710042063
S113D0A2C6B6DB00BDFFB5B6DB01BDFFB5B6DB021C
S113D0B2BDFFB5BDFFC439FCD000CE2710028FF7E7
S113D0C2DB008FCE03E8028FF7DB018FCE00640210
S113D0D28FF7DB028FCE000A028FF7DB038FF7DBB9
S105D0E204390B
S9030000FC
